:020000040800F2
:1000000008310020150200087F09000827090008B0
:100010004F090008F5070008392600080000000015
:10002000000000000000000000000000E91D0008C2
:10003000F70700080000000087010008951E00086F
:100040002F0200082F0200082F020008091D0008D7
:100050002F0200082F0200082F0200082F020008BC
:100060002F0200082F0200082F0200082F020008AC
:100070002F0200082F0200082F0200082F0200089C
:100080002F0200082F0200082F0200082F0200088C
:100090002F0200082F0200082F0200082F0200087C
:1000A0002F0200082F0200082F0200082F0200086C
:1000B0002F020008B51F0008B91F00082F02000812
:1000C0002F0200082F0200082F0200082F0200084C
:1000D0002F020008112300087D230008FD230008DB
:1000E0002F020008991B00082F0200082F020008A9
:1000F0002F0200082F0200082F0200082F0200081C
:100100002F0200082F0200082F0200082F0200080B
:10011000D12200082F0200082F0200082F02000839
:100120002F0200082F0200082F0200082F020008EB
:10013000DFF80CD000F078F900480047A526000849
:1001400008310020EFF3108072B6704780F31088FA
:1001500070471D484FF0FF010170002080F30988AF
:100160001A48012101701A484FF08051016062B6AF
:10017000FEE717484FF080510160704714484FF078
:1001800080510160704772B6EFF3098028B12038C2
:1001900080E8F00F0F490968086000B50E488047F5
:1001A0005DF804EB0D480E490A78027009480D49C4
:1001B0000A680260106890E8F00F203080F3098828
:1001C0004EF0040E62B6704722ED00E01B000020E6
:1001D00004ED00E034000020A51100081800002004
:1001E000190000203C00002072B6704762B67047CC
:1001F000EFF3108072B6704780F310887047B0FA42
:1002000080F0704790FAA0F0704730BF704720BF71
:10021000704700000648804706480047FEE7FEE7B3
:10022000FEE7FEE7FEE7FEE7FEE7FEE7FEE7FEE7A6
:10023000B91E000831010008D2B201E000F8012B1C
:10024000491EFBD270470022F6E710B513460A4656
:1002500004461946FFF7F0FF204610BD421C10F877
:10026000011B0029FBD1801A70472DE9FE4F81EA5E
:10027000030404F0004421F0004100944FF0000B0F
:1002800023F0004350EA010402D052EA030404D1EF
:100290000020014603B0BDE8F08FC3F30A54C1F358
:1002A0000A552C44A4F2F3340194A0FB0254C1F388
:1002B000130141F48011C3F3130343F4801301FBD2
:1002C000024400FB034E840A970A44EA815447EA39
:1002D0008357A4FB076802958D0A05FB07854FEA43
:1002E000932C04FB0C542705029D4FEA065847EA5D
:1002F0001637B5EB08056EEB070C870E920E47EA32
:10030000811742EA8312A7FB0201B6EB0B0164EBF3
:1003100000042B0D43EA0C335E1844EB1C50DA4604
:100320005146E7FB0201C5F313044FEA0B3343EADE
:1003300014534FEA0432019C43EA0603A4F10C046F
:100340000294009CCDE900B400F01BF8A2E70EB5C2
:1003500040F2334102910021CDE900110A460B46DB
:1003600000F00FF803B000BD10B5002B08DA401CF8
:1003700041F1000192185B411A4301D120F00100C4
:1003800010BD2DE9F04D92469B4611B1B1FA81F2B4
:1003900002E0B0FA80F22032904600F057F80446AE
:1003A0000F4640EA0A0041EA0B0153465A46084309
:1003B00003D120463946BDE8F08D114653EA0100CD
:1003C00015D0C8F14002504600F04FF805460E46E1
:1003D00050465946424600F039F8084301D0012002
:1003E00000E00020054346EAE0762C4337430A98B4
:1003F0004FEA4453A0EB08004FEAD4240A304FF0F0
:10040000000244EA47544FEAD72502D500200146AE
:10041000D1E7010510196941DDE908450019694175
:10042000BDE8F04DA0E70000064C074D06E0E0688F
:1004300040F0010394E8070098471034AC42F6D32B
:10044000FFF77AFEE02B0008002C0008202A04DBCE
:10045000203A00FA02F1002070479140C2F12003D7
:1004600020FA03F3194390407047202A04DB203A16
:1004700021FA02F00021704721FA02F3D040C2F1C4
:10048000200291400843194670470029816802D034
:1004900041F0010101E021F001018160704700009D
:1004A0000D4910B5884202D1012144150AE00B49DB
:1004B000884202D10121041504E0094988420AD189
:1004C0000121CC03204601F011FB2046BDE810407D
:1004D000002101F00BBB10BD0024014000280140A9
:1004E000003C0140014600208968490700D50120F1
:1004F0007047C06C80B270470246002012680A4202
:1005000000D001207047014600208968090700D506
:100510000120704710B542680E4B0C791A400B68E9
:1005200042EA04221343436083680B4A1340D1E933
:10053000024222434C7943EA44031A438260C26A6E
:10054000097C22F47002491EC9B242EA0151C1621B
:1005500010BD0000FFFEF0FFFDF7F1FF70B50724AE
:1005600009290AD9C568A1F10A0606EB4606B44076
:10057000A543B3401D43C56007E0056901EB410693
:10058000B440A543B3401D4305611F23072A09D288
:10059000446B521E02EB820293409C4391400C43F9
:1005A000446370BD0D2A09D2046BD21F02EB820294
:1005B00093409C4391400C43046370BDC46A0D3A60
:1005C00002EB820293409C4391400C43C46270BD95
:1005D000816841F00801816070470029816802D07C
:1005E00041F4A00101E021F4A0018160704781681D
:1005F00041F00401816070472DE9F04387B001218B
:100600004FF4077001F066FA4FF4004001F040FA31
:100610001026DFF80C91ADF8006000248DF803403F
:100620006946484600F0EEF80225DFF8F880ADF89C
:1006300000508DF803406946404600F0E3F83A4F19
:10064000ADF800608DF803406946384600F0DAF8EE
:100650000126ADF800608DF803406946404600F081
:10066000D1F8ADF800508DF803406946384600F0E7
:10067000C9F82020ADF800008DF8034069464846CF
:1006800000F0C0F8ADF800608DF8034069464846B8
:1006900000F0B8F8ADF800508DF8034069464846C0
:1006A00000F0B0F80420ADF800008DF80340694672
:1006B000484600F0A7F80820ADF800008DF8034088
:1006C0006946484600F09EF8184D2846FFF7E8FEB8
:1006D0008DF8084001948DF809404FF46020CDE971
:1006E00003048DF8146001A92846FFF713FF0121C8
:1006F0002846FFF7CAFE2846FFF76AFF2C46204629
:10070000FFF701FF0028FAD12046FFF770FF2046CF
:10071000FFF7E8FE0028FAD107B0BDE8F08300003B
:1007200000100140000C014000080140002401407D
:1007300070470000174802F019F8002140F283309A
:1007400001F0E2FBFFF758FFFFF7FCFC044600F066
:1007500037F82046FFF7FAFC0F4E104FDFF84080C5
:10076000104C4FF066350A210D2000F0BBF8FFF762
:10077000EEFD2A463346FFF778FD3A464346FFF73B
:1007800074FDA060E16000230A221946184600F0BB
:100790003FFDE8E7F001002066664A3F893BE28EB4
:1007A000B8232440000000207047704700F0E2FEAC
:1007B00000F034FBFFF7BEFF704770477047000042
:1007C00008B52223064A0021064800F043FB8DF8B5
:1007D00000006A4604A1222000F0DAFB08BD0000F8
:1007E0000C1100208D2A00085461736B2078665428
:1007F00054532000FEE7704701490860704700002D
:1008000014040140F0B5CA78002502F00F03D206A7
:1008100001D58A7813430C784FF00F0E0122ECB10A
:10082000D0F800400F8802FA05F63740B74211D1E0
:100830004FEA850C0EFA0CF724EA070703FA0CF4CA
:100840003C43CF78282F02D0482F02D002E04661E7
:1008500000E006616D1C082DE4D304600C88FF2CB9
:100860001ED944685FF0000606F1080702FA07F592
:100870000F882F40AF420FD14FEA860C0EFA0CF7CB
:10088000BC4303FA0CF73C43CF78282F00D14561D5
:10089000CF78482F00D10561761C082EE4D3446040
:1008A000F0BD0246002092680A4200D00120704745
:1008B00010B50B4C0146072301222046FFF74EFEE0
:1008C00001212046FFF789FE02212046FFF714FE92
:1008D0000028F9D02046BDE81040FFF70ABE00000E
:1008E000002401402DE9F04100250E4680462C46AB
:1008F00040F2754710E04046FFF7DAFF0522054455
:1009000000210020401C80B2B842FBD3491C89B2B0
:100910009142F6D3641CE4B2B442ECD3B5FBF6F0DA
:1009200080B2BDE8F081FEE781070CD16421B0FB05
:10093000F1F201FB120141B94FF4C871B0FBF1F2C1
:1009400001FB120008B10020704701207047FEE74C
:100950002DE9F04100240E46804627460BE000BFFB
:1009600004EBC41101EB080005468021FFF76BFC86
:1009700085F88070641CB442F2DBBDE8F0817047FA
:10098000F0B50F21C478027801234FF0E026DCB1E6
:10099000124C2468457804F4E064C4F5E064240A49
:1009A000C4F10407E1408478BD400C402C43210190
:1009B0000B4C1155007800F01F018B40400906EBED
:1009C0008000C0F80031F0BD02F01F0083405009E4
:1009D00006EB8000C0F88031F0BD00000CED00E0B7
:1009E00000E400E07047000070B50E4605001446B4
:1009F00005D036B10E48807828B112200DE00420D1
:100A00000BE00C2009E02878012808D0022806D045
:100A1000032804D0042802D00120107070BDFFF715
:100A200091FB6E61FFF792FB0020207070BD00000B
:100A30001400002030B587B000F070F82A48002478
:100A400004638470C4700472C471C460C46184613E
:100A5000446144708471214600F134025454491CAD
:100A6000C9B20829FAD3047144718462046200F0A7
:100A70007BFE00F04DFE00F027FE00F0B7FE00F018
:100A8000DBFE02AA0325202031C218494FF6FF7071
:100A9000CDE9000101F17C023F230021144800F060
:100AA00021FA05AA13A13F2000F072FA02AA402001
:100AB00031C214494FF6FE70CDE9000101F1FC028C
:100AC0003E230021104800F00DFA05AA0FA13E2098
:100AD00000F05EFA00F038FC00F026F807B0BDE840
:100AE0003040FFF77FBF000014000020F01300200B
:100AF000CD19000875432F4F532D49492049646C87
:100B000065000000F0120020E919000875432F4F1E
:100B1000532D49492053746174000000014900209D
:100B20000880704710000020704700000449C87911
:100B3000012804D18878FF2801D2401C88707047B2
:100B40001400002070B5144CE079012822D1FFF781
:100B5000F9FA0546A07820B1401E10F0FF00A07001
:100B600013D1E07888B900F0ADFE0C48617950F8F7
:100B70002100A0622279914207D0C16B491CC16358
:100B8000E068401CE060FFF7F9FA2846BDE87040D5
:100B9000FFF7DCBA70BD00001400002070140020C4
:100BA0002DE9F04107461B488846007810B1002027
:100BB000BDE8F081FFF7C6FA174E34680CB16168E2
:100BC0003160FFF7C3FA14B3FFF7BCFA13490D689D
:100BD000BDB12A680A60FFF7B9FA07EB8800C5E9DA
:100BE0000170EF602F61A5F814800020E8820221D7
:100BF000217020810AA065606061204600F05AFDE6
:100C000005E0316861603460FFF7A0FA00242046F7
:100C1000CEE700001600002024000020580000202D
:100C20003F00000010B5094CE07901280CD1FFF716
:100C300089FAA17821B9E178FF2901D2491CE17034
:100C4000BDE81040FFF782BA10BD0000140000207C
:100C500010B50D4CE079012814D1FFF773FAE17853
:100C600031B1491E11F0FF01E17001D1A17819B134
:100C7000BDE81040FFF76ABAFFF768FABDE8104018
:100C800000F0FCBD10BD00001400002070B505464A
:100C90000D48007808B1002070BDFFF753FA0B49EA
:100CA0000C680CB162680A60FFF750FA4CB103207F
:100CB000207025810020606005A06061204600F062
:100CC000F9FC204670BD0000160000202400002022
:100CD0003F0000002DE9F04789460600144604D085
:100CE0003078032803D001200AE0042008E02648D9
:100CF000007808B1022003E02448007818B10D20E4
:100D00001070BDE8F087FFF71DFA0746308900250F
:100D100030B1401E30813846FFF718FA2570F0E7F1
:100D2000DFF86C80D8F8000010F8341F41F00101A2
:100D30000170457040F8049C304600F097FC38463E
:100D4000FFF704FA00F09AFDFFF7FCF90746D8F820
:100D5000000090F8351031B1022906D0314600F07C
:100D600061FC0A2002E0257001E00E202070D8F816
:100D700000001C3005764576056045603846BDE8C4
:100D8000F047FFF7E3B9000016000020170000202D
:100D90003400002070B5040004D02078032803D06C
:100DA000012070BD042070BDFFF7CCF90546A07A84
:100DB00058B1002301221946204600F0F7FB2846CF
:100DC000FFF7C4F900F05AFD09E020894FF6FF71E2
:100DD000884206D2401C20812846FFF7B7F9002040
:100DE00070BD2846FFF7B2F9332070BD10B5094C2D
:100DF000E07900280CD100F065FD6079064920718A
:100E000051F82000A0622062BDE81040FFF7A1B9B0
:100E100010BD0000140000207014002010B5022046
:100E200000F0C2F9FFF78EF9084C0021E161FFF7ED
:100E30008DF90A2000F0B8F9FFF784F9E1696161E2
:100E400001216170BDE81040FFF780B91400002057
:100E5000FFF76EBC2DE9FE431C4615460F46804643
:100E60003F2B02D92A20BDE8FE83FFF76BF91A4910
:100E7000097819B1FFF76AF93C20F4E7174E56F8E4
:100E8000241019B1FFF762F92820ECE7012146F898
:100E90002410FFF75BF900232A463946404600F04C
:100EA000F3F800250146009501952B462A46204679
:100EB000029500F017FD070007D0FFF743F946F849
:100EC0002450FFF743F93846CDE70548007801285C
:100ED000F9D100F0D3FCF6E71600002070140020D2
:100EE0001B0000202DE9FF4F83B01C46DDE913866F
:100EF000DDE9119792468B463F2B03D92A2007B094
:100F0000BDE8F08FFFF71EF91C49097819B1FFF70A
:100F10001DF93C20F3E71A4D55F8241019B1FFF7DD
:100F200015F92820EBE7012145F82410FFF70EF909
:100F300032463946484600F09FFD334652465946F0
:100F4000039800F0A1F80097CDE9018601464A46D2
:100F50002046109B00F0C6FC060008D0FFF7F2F810
:100F6000002145F82410FFF7F1F83046C7E705489F
:100F700000780128F9D100F081FCF6E71600002086
:100F8000701400201B000020FFF70EBCFFF70DBC03
:100F900070B50E46054614463F2803D9FF2D01D0F3
:100FA0002A2004E02EB11248007820B112201070DF
:100FB00070BD0C20FBE7FFF7C5F80146FF2D03D1FC
:100FC0000C48006890F836500B4850F8250043252F
:100FD00040B1012806D006650846FFF7B7F80020A3
:100FE000207070BD0846FFF7B1F8257070BD000095
:100FF000160000203400002070140020FFF7DCBB36
:101000002DE9F0410C4605463F2804D9FF2D02D0BA
:101010002A20BDE8F08144B1002020606060FFF725
:1010200091F80146FF2D02D005E00920F1E71448B0
:10103000006890F83650134850F8250058B1012840
:1010400009D0027CD2070BD0D0E9027600250846F1
:10105000FFF77CF80AE00846FFF778F84320D8E766
:101060000846FFF773F84520D3E76D1C01CF002831
:10107000FBD0A8002060701B800060600020C8E7E3
:1010800034000020701400204FF080731360131F91
:101090001860A2F108006FF001030360001F4FF019
:1010A00012330360001F4FF003330360001F4FF043
:1010B00002330360001F5B100360001F0160001F0C
:1010C0004FF011310160001F19010160001F4FF046
:1010D00009310160001FD9000160001F4FF0073186
:1010E0000160001F4FF006310160001F4FF0053115
:1010F0000160980042F83C0D1046704770B5254DD0
:1011000004463F2804D005D3FF280CD02A2070BD08
:10111000472070BDFFF716F80346286890F83600A0
:10112000A04206D007E0FFF70DF80346286890F8C4
:101130003640012500E00025174850F8240058B13A
:1011400001280ED090F83820144C90F83960A15C3A
:10115000B143A1540AD00FE01846FEF7F7FF48202C
:1011600070BD1846FEF7F2FF432070BD0C4990F8A1
:101170003A400A78A2430A7010F8341F41F008017F
:1011800001701846FEF7E2FF012D01D100F076FB59
:10119000002070BD340000207014002048000020A2
:1011A0001A000020FFF709BB70B504461348007809
:1011B000002821D11248007800281DD1002C1BD016
:1011C000FEF7C0FF03460F480F4D016891F8380045
:1011D00091F839602A5CB2432A5405D10B4891F842
:1011E0003A500278AA43027018460C63FEF7AEFF2D
:1011F000BDE8704000F042BB70BD0000160000204A
:101200001700002034000020480000201A000020B1
:1012100070B51A4C24780CB1552070BD184C247848
:101220000CB1322070BD00B919B13B2902D951204F
:1012300070BD1AB13B2A02D9522070BD2BB14FF4B8
:101240007A74A34203D3532070BD542070BD5B1D3C
:1012500064256B43B3FBF4F34FF461646043C1EB6B
:10126000011100EB8100104400EBC00101EB001004
:1012700003EB8000FFF798FF002070BD16000020F0
:10128000170000202DE9F04100F04CF8FEF75AFF5E
:10129000234D296B491C2963FEF758FFE879012883
:1012A0003BD1687A0126002720B1012835D00228D9
:1012B00002D06F72EC6A2CE06E72FBE7FEF742FF21
:1012C000216B19B3491E216320D194F8341011F019
:1012D000370F06D001F0C80184F8341084F8356067
:1012E00001E084F8357094F8341009070ED494F8AE
:1012F0003A10AA791143A971094994F83820343178
:1013000094F839C08B5C43EA0C038B546469FEF794
:101310001DFF94F836003F28D0D1BDE8F0810000D1
:101320001400002010B5FFF749FA0348002101809E
:10133000BDE8104000F002B810000020014800682D
:10134000FFF728BD6800002070B588B04FF4207109
:101350002E4800F041FA40212D4800F03DFA0020CF
:101360002A4904466423421C00EB8000154601EB29
:10137000C00092B202EB8202037001EBC20280F85D
:101380002540C26023A20262A8B20F28EBD300EB73
:10139000800001EBC0001FA2037080F82540C460EC
:1013A00002621D481E4A04601C4804801020108000
:1013B0001C4801600120FFF769FC1B4D28600020DC
:1013C000FFF764FC194E05AA19A130602868FFF7E1
:1013D0000BFB05AA1BA13068FFF706FB4021029119
:1013E0000320CDE903401C4A4FF6FD70CDE9000211
:1013F0000023FC3219461948FFF774FD06AA18A10C
:101400000020FFF7C5FD08B070BD0000A81F002038
:10141000282300203F000000600000205E00002024
:101420005C0000206C0000206400002068000020A8
:1014300075432F4F532D494920546D724C6F636B88
:101440000000000075432F4F532D494920546D7201
:101450005369676E616C000028220020BD140008EB
:1014600075432F4F532D494920546D7200000000E1
:10147000032280F825200F4A0129126814D08169BF
:1014800091B111444161017D0B4A01F0070102EB6A
:10149000C10100230A68086042B1C26010618A88F5
:1014A000521C8A8003617047C169EAE70122C36068
:1014B000F7E70000600000202823002008B5DFF8CF
:1014C0006880DFF868901A4D6A460021D8F800005D
:1014D000FFF700FCFFF7A6FB2868401C286000F01F
:1014E0000700022759F8304013E060692968E66870
:1014F00088420DD1204600F01DF894F824000228FF
:101500000CD084F82570626812B12046A16890471B
:101510003446002CE9D1FFF79BFBD5E7012120469B
:10152000FFF7A6FFEFE70000680000202823002057
:101530006000002010B5017D0D4A01F0070102EBAB
:10154000C10200231468C168844203D1116029B12B
:101550000B6103E00469E16001B10C61012180F8D5
:101560002510C36003619088401E908010BD00006C
:10157000282300200B4864210068B0FBF1F0B0F193
:10158000807F0DD220F07F414FF0E020491E416165
:10159000054AF02111700021816107210161704726
:1015A000FEE700007000002023ED00E0F0B50546E6
:1015B000807A194C4FF00007205C05EB0006F67AA4
:1015C000A45D04EBC004E6B2144C54F8264004F1C8
:1015D0002404E7602160217C21EA02012174637404
:1015E000A4F1240409070BD40D4994F83A208B790F
:1015F0001A438A71343194F839300A5C1A430A5418
:101600002946204600F00EF8216A19B1204600F064
:1016100019F8E5613046F0BDC82A000870140020B2
:101620001400002010B590F8382090F839408B183D
:10163000DA7AA243DA7204D18A7A90F83A008243C5
:101640008A7210BD70B510F8383F84784578086804
:10165000002809D0C618F27AAA43F27202D1827A1F
:10166000A2438272091DF2E770BD000030B5104937
:1016700000F10B020B6A43F81C0F1C7F5B7FA55C1B
:101680001D43A5540A6A837A3832947823438372BF
:10169000107801F134045578235C383AAB43235475
:1016A00004D192F83A2088799043887130BD0000C7
:1016B000140000200022827211464318491CC9B24E
:1016C000DA720829F9D3704710B550210D4800F09F
:1016D00083F800200B4A0346411C02EB00108CB239
:1016E00002EB04140370446007A4C46088B20428A9
:1016F000F2D302EB001004A103704360C160034801
:10170000026010BD001D00203F00000050000020BE
:1017100010B54FF4F071114800F05EF800200F4949
:101720000346421C00EB400094B201EBC00004EB06
:10173000440401EBC4040370446009A4446190B202
:101740001328EED300EB400001EBC00004A20370AD
:10175000436042610348016110BD00001011002088
:101760003F0000001400002010B54FF4F26116484D
:1017700000F032F84FF48071144800F02DF8124A4E
:101780000020411C00EB400404EBC000CBB203EB93
:10179000430402EBC00004EBC30302EBC303436149
:1017A0000BA30365C8B21528EBD300EB400101EB96
:1017B000C00002EBC00006A300210365416105489B
:1017C0004262C16210BD000070150020701400203C
:1017D0003F00000014000020002203E0491E00F832
:1017E000012B89B20029F9D17047000010B578218A
:1017F0000E48FFF7F1FF0D49002000BF00EB40024B
:1018000001EBC20202F118035360401C08A380B22E
:1018100053610428F2D300EB400001EBC00000222A
:10182000426003A242610348016010BD501D0020C8
:101830003F0000005400002010B54FF4F0710D4837
:10184000FFF7CAFF0B4A0020411C8BB200EB40009F
:1018500003EB430302EBC30342F8303088B2132892
:10186000F2D300EB4000002142F830100248026041
:1018700010BD0000C81D00205800002070B5FEF704
:1018800061FC0E4C0546A07898B9E07888B900F064
:1018900019F80B49607951F82010A1622279904221
:1018A00007D0C86B401CC863E068401CE060FEF7CE
:1018B00060FC2846BDE87040FEF748BC14000020DC
:1018C000701400200649054A01F134038879105C40
:1018D0001B5CD25C02EBC00048717047C82A00084C
:1018E000140000202DE9F05F9846DDE90ABA914620
:1018F0000D460746FEF726FC314E746A002C5BD07D
:1019000061691C347162FEF721FC44F81C5CA77607
:10191000002525766576656144F810BC44E906A982
:101920000C9824F80C0C24F80A8CE577FA08227736
:1019300007F00701012000FA02F2E176A277884061
:10194000607725606560E560A5602562A5626562D7
:101950001CA0E562C4E90C501C3C002004EB800193
:10196000401C4D6510F0FF00F8D02046FFF770FADC
:101970002046FFF709FBFEF7E5FB0146124840F859
:101980002740F06AC4E9050500B18461F462383487
:10199000B279A0781043B071094822783430647865
:1019A000835C23438354307A401C30720846FEF730
:1019B000CDFB0020BDE8F09FFEF7C8FB4220F9E711
:1019C000140000203F00000070140020054C00BFF0
:1019D000FEF7B8FBE169491CE161FEF7B7FBFFF7D1
:1019E000D5FAF5E714000020144C02E01420FFF7AC
:1019F000DBFB60780028F9D0642160690025B0FB2A
:101A0000F1F0606118B92570FF20FFF777FBFEF752
:101A100099FBE169C4E90615FEF798FBD4E90510C6
:101A2000B0FBF1F0C0F164002070FFF7E7FA00F0BE
:101A300007F80A20FFF7B8FBE9E7000014000020D0
:101A40007CB50C4D002469462046FFF7D9FA58B9F9
:101A500055F8240040B1012806D0D0E9021201EB6C
:101A6000820181640199C164641CE4B23F2CEAD90B
:101A70007CBD000070140020D30707D0920705D565
:101A80000022002902D004C0491EFAE77047000076
:101A9000034A516821F440410143516070470000FE
:101AA00000100240044A0029D16901D0014300E03E
:101AB0008143D1617047000000100240044A0029B0
:101AC000116901D0014300E08143116170470000BA
:101AD00000100240044A0029916901D0014300E04E
:101AE000814391617047000000100240044A0029C0
:101AF000D16801D0014300E08143D160704700000C
:101B00000010024030B520494A6812F00C031F4A09
:101B100003D0042B01D0082B22D002604A680F2387
:101B20001B4C03EA1212A35C0268DA4042604B6865
:101B3000072505EA1323E35C22FA03F383604B686D
:101B400005EAD323E35C22FA03F2C2604968032367
:101B500003EA9131231F595CB2FBF1F1016130BD01
:101B60004A684B6802F470124FF0020413F4803F8D
:101B700004EB924202D04B689B0301D5054B00E079
:101B8000024B5A43C9E700000010024000127A00DD
:101B90008800002000093D0010B500F08DF9BDE877
:101BA00010404FF40030FEF727BE000002490A88BB
:101BB00082430A8070470000042800402DE9F04766
:101BC00000F062F8DFF8B0800646B0FBF8F32B486F
:101BD0002B4C1F460188994231D0038040F2B275E8
:101BE0004FF4B77A4FF4B6790FE02846FEF79CFE23
:101BF00038B1534502D3A3F5B77304E06D1CADB201
:101C000005E0A3F26D136D1CADB24B45EDD8A58078
:101C10000025DFF870900CE0A088FEF785FE08B183
:101C2000012D25D019F80500984204D81B1A6D1C07
:101C3000ADB21C2BF0D26D1CA5715B1CE37108FBCF
:101C400017604FF46162B0FBF2F1217002FB1102E8
:101C50003C21B2FBF1F0607001FB1020A070E27932
:101C6000A179A08800F02AF820720020BDE8F08752
:101C70001D2BE0D31D3BDAE7805101009E000020C0
:101C8000F82C0020D42B0008034800880249091FC3
:101C9000098840EA014070471C280040064909882D
:101CA000C2B21140044A121F1288024202D009B186
:101CB00001207047002070470428004030B564249C
:101CC000B0FBF4F5EBB204FB1500132B01D9643023
:101CD000C0B200EB90040723B4FBF3F503FB1544FB
:101CE000084D22440D44800715F8015C2A4492B245
:101CF00003D1032901D2521E92B2B2FBF3F003FBCF
:101D0000102030BDC82B000810B50120FFF7C6FF1A
:101D100008B1FFF753FF0220FFF7C0FF20B100F02A
:101D2000CBF80220FFF742FF0520FFF73FFFBDE899
:101D3000104000F001B80000024801888906FCD577
:101D400070470000042800402DE9F0410F46054689
:101D5000FEF784FA234C0646FD21204600F068FC7D
:101D60004021204600F0C8FB0128F9D1002120467F
:101D700000F05EFC4021204600F0BEFB0128F9D1B6
:101D8000B01C81B2204600F053FC4021204600F0F8
:101D9000B3FB0128F9D10121204600F049FC402184
:101DA000204600F0A9FB0128F9D1B9B2204600F085
:101DB0003FFC4021204600F09FFB0128F9D100277D
:101DC0000CE000BF15F8011B204600F031FC40215B
:101DD000204600F091FB0128F9D17F1CB742F1DBCE
:101DE000BDE8F08100480040704700000CB50021BC
:101DF000264801910091026842F4803202604FF45B
:101E0000A063026802F400320092019A521C01920F
:101E1000009A12B9019A9A42F3D10268920333D51B
:101E2000012100911A490A6842F010020A600A680A
:101E300022F003020A600A6842F002020A60416866
:101E4000416041684160416841F48061416041689E
:101E500021F47C114160416841F4E811416001685E
:101E600041F08071016001688901FCD5416821F071
:101E700003014160416841F0020141604168C1F3E2
:101E800081010229FAD10CBD00910CBD0010024065
:101E90000020024010B5FEF755F9064A1178491C9A
:101EA0001170FEF753F9FFF7EDF9BDE81040FEF7AA
:101EB00049BE0000160000200F4810B5016841F02F
:101EC0000101016041680D4A1140416001680C4AFE
:101ED00011400160016821F480210160416821F412
:101EE000FE0141604FF41F018160FFF77FFF05494C
:101EF0004FF00060086010BD001002400000FFF8C5
:101F0000FFFFF6FE08ED00E070B5284E054688B0EC
:101F10000C46304600F084F801210420FFF7DAFD7A
:101F200001210846FFF7D6FD0121C802FFF7D2FDC7
:101F3000B015ADF81C0018208DF81F0003208DF897
:101F40001E0007A91A48FEF75DFCADF810400024FA
:101F5000ADF81450ADF81640ADF8124004A9304663
:101F600000F068F97020ADF800000120ADF8020023
:101F7000ADF804406808ADF80600ADF808406946C1
:101F8000304600F011F90821304600F04DF90121EA
:101F9000304600F023F80121304600F02CF80121F2
:101FA000304600F032F808B070BD0000002C01404F
:101FB000000801407047000010B5074C0121204681
:101FC00000F0E6F8002805D02046BDE810400121C9
:101FD00000F00EB810BD0000000800400029018884
:101FE00002D041F0800101E021F0800101807047C2
:101FF000C943018270470029018802D041F00101E4
:1020000001E021F0010101807047002930F8441FF0
:1020100002D041F4004101E0C1F30E01018070479C
:102020004B4910B5884202D10121C41486E0B0F1B9
:10203000804F09D0474988420DD101210220FFF786
:102040003DFD0021022064E001210846FFF736FD36
:10205000002101205DE04049884206D10121042091
:10206000FFF72CFD0021042053E03C49884206D1B3
:1020700001210820FFF722FD0021082049E038490E
:10208000884206D101211020FFF718FD0021102001
:102090003FE03449884206D101212020FFF70EFDA0
:1020A0000021202035E03049884202D1012144142A
:1020B00044E02E49884202D10121CC043EE02C4963
:1020C000884202D101210C0538E02A49884202D118
:1020D00001214C0532E02849884206D101214020E7
:1020E000FFF7ECFC0021402013E02449884206D190
:1020F00001218020FFF7E2FC0021802009E0204937
:1021000088420AD1841501212046FFF7D7FC00211F
:102110002046BDE81040FFF7D1BC1A49884202D1E1
:1021200001210C040AE01849884202D101214C0423
:1021300004E0164988420AD101218C042046FFF7A9
:10214000D5FC2046BDE810400021FFF7CFBC10BDF4
:10215000002C01400004004000080040000C00403A
:10216000001000400014004000340140004C0140C9
:10217000005001400054014000180040001C004085
:102180000020004000400140004401400048014060
:1021900002460020138A92890B4202EA010202D011
:1021A000002A00D00120704730B5028C22F00102D5
:1021B0000284028C8388048B22F0020224F07305CF
:1021C0000C882C430D8915434A882A43114DA84297
:1021D0000BD0114DA84208D0104DA84205D0104D8B
:1021E000A84202D00F4DA8420DD122F008054A891D
:1021F00023F440732A4322F004058A882A438D89F8
:102200001D43CB892B4383800483C9888186028444
:1022100030BD0000002C014000340140004001406E
:102220000044014000480140028B22F008020A43AA
:102230000283704730B502881B4B1C4C98420DD06E
:10224000A0420BD0B0F1804F08D0194DA84205D064
:10225000184DA84202D0184DA84203D122F07005B3
:102260004A882A43154DA84206D0154DA84203D0EE
:1022700022F44075CA882A4302808A8882850A88A7
:10228000028598420AD0A04208D00E4A904205D05A
:102290000D4A904202D00D4A904201D1097A01863E
:1022A0000121818230BD0000002C0140003401403A
:1022B0000004004000080040000C004000100040F6
:1022C000001400400040014000440140004801402B
:1022D00070B5FEF72BFC0C4D40F2255421462846E4
:1022E00000F011F938B1284600F09EF9C1B2074854
:1022F00000F041FA03E02146284600F0B5F8BDE8B9
:102300007040FEF71FBC0000004C0040F0010020B0
:1023100070B5FEF70BFC164C40F22551204600F03C
:10232000F2F8E0B1204600F07FF9C2B2114801880E
:102330000B0414D44C044FF0000304D50A2A0DD129
:1023400041F4004111E00D2A0DD0C1F30D040A4DF6
:10235000491C89B22A550180C72900D90380BDE8EC
:102360007040FEF7EFBB41F480410180F7E70000C9
:1023700000380140980000206823002070B5FEF767
:10238000D5FB1A4D40F225542146284600F0BBF8F3
:1023900020B3284600F048F9C4B22146144800F0A2
:1023A000EAF91448428811041CD453044FF0000188
:1023B00004D50A2C0DD142F400410AE00D2C0AD0BC
:1023C000C2F30D030C4D521C92B2EC544280C72A4A
:1023D00008D9418006E042F48041FAE721462846C8
:1023E00000F042F8BDE87040FEF7ACBB004400408E
:1023F000F0010020980000203024002070B5FEF786
:1024000095FB164C40F22551204600F07CF8E0B1D7
:10241000204600F009F9C2B2114881880B0414D497
:102420004C044FF0000304D50A2A0DD141F40041B9
:1024300011E00D2A0DD0C1F30D040A4D491C89B2DB
:102440002A558180C72900D98380BDE87040FEF7F6
:1024500079BB41F480418180F7E7000000480040EB
:1024600098000020F8240020C9430180704700290B
:10247000818902D041F4005101E021F400518181B1
:1024800070470000174910B588420AD101218C031A
:102490002046FFF72BFB2046BDE810400021FFF748
:1024A00025BB1149884202D101214C0410E00F499B
:1024B000884202D101218C040AE00D49884202D1F0
:1024C0000121CC0404E00B4988420AD101210C050A
:1024D0002046FFF7F3FA2046BDE810400021FFF741
:1024E000EDBA10BD003801400044004000480040F3
:1024F000004C0040005000400246002012880A4272
:1025000000D00120704730B501F01F0201240025E2
:10251000C1F3421304FA02F2012B0FD0022B0FD0A9
:10252000838A4FEA11210088134204FA01F400EA79
:10253000040001D000B10125284630BD8389F0E7B1
:10254000038AEEE710B5C1F3421301F01F04012125
:10255000A140012B07D0022B07D01430002A0268BB
:1025600005D00A4304E00C30F8E71030F6E78A4360
:10257000026010BD30B50446008A85B00D464CF6A9
:10258000FF710840E98801432182A1894EF6F310CA
:102590000140A8882A8910436A890A431043A08110
:1025A000A08A4FF6FF410840A9890143A1826846ED
:1025B000FFF7A8FA1B48844201D1039800E0029873
:1025C000A1890904002900EBC00101EB0010296872
:1025D00002DA4FEA410101E04FEA8101B0FBF1F07C
:1025E0006422B0FBF2F14FEA01114FEA11136FF0D0
:1025F00018056B4300EB8300A3891D044FF03203E1
:1026000006D503EBC000B0FBF2F000F0070005E0D8
:1026100003EB0010B0FBF2F000F00F000843208144
:1026200005B030BD003801408088C0F30800704715
:10263000C1F3080181807047FEE702E008C8121F5D
:1026400008C1002AFAD170477047002001E001C19B
:10265000121F002AFBD17047FE2801D0401C704792
:102660000020704738B501214FF4A070FFF732FA0F
:102670004FF48060ADF8000048248DF803406946AF
:102680000648FEF7BFF82020ADF800008DF80340A3
:1026900069460348FEF7B6F838BD0000001801404F
:1026A0000020014030B587B0FDF79EFDFEF7C2F96E
:1026B000FFF7D8FF4FF480612248FEF7F2F8224C72
:1026C000202120702148FEF7ECF860704FF496400E
:1026D00000F06AF84FF4E135284600F0B7F82846D4
:1026E00000F008F9207848B3607838B34FF41650FA
:1026F00000F076F914211648FEF752FA60601421B2
:102700001448FEF725F9144801AD032300224021A7
:102710000FC51D200E4A03460090121F00210F48CE
:10272000FEF7E0FB8DF8140005AA0DA11D20FEF7B1
:102730002FFCFEF75BFB07B0002030BD00F030F946
:10274000FEE70000001801400000002000200140CA
:10275000A0010020FC020020A0000020AD0700081E
:102760005374617274205461736B00000021016026
:1027700041608160704710B5024600F10C03846827
:102780000068FF2C09DCC1541068FFF765FF10607A
:102790009068401C9060012010BDFFF75DFF106045
:1027A000C154002010BD0000F0B5054687B00121DE
:1027B00044F20400FFF78EF9224E3046FFF762FE26
:1027C0007015ADF8100003248DF8124018201E4F2C
:1027D0008DF8130004A93846FEF714F83015ADF84B
:1027E000100004208DF8130004A93846FEF70AF8FB
:1027F0000020ADF80400ADF80600ADF80800ADF813
:102800000C000C20ADF80A00009569463046FFF731
:10281000B1FE25208DF814008DF815408DF8164076
:1028200001208DF8170005A8FEF7AAF8012240F252
:1028300025513046FFF786FE01213046FFF717FE8F
:1028400007B0F0BD0038014000080140F0B5064671
:1028500087B0012144F20400FFF73CF9012122482E
:10286000FFF720F90425ADF8105003248DF812402D
:1028700018201E4F8DF8130004A93846FDF7C2FF3B
:102880000820ADF810008DF8135004A93846FDF764
:10289000B9FF26208DF814008DF815408DF81640EC
:1028A00001208DF8170005A8FEF76AF80020ADF8A2
:1028B0000400ADF80600ADF80800ADF80C000C20DF
:1028C0000B4CADF80A00009669462046FFF752FE11
:1028D000012240F225512046FFF734FE0121204617
:1028E000FFF7C5FD07B0F0BD04000200000801407D
:1028F00000440040F0B5054687B001210820FFF7ED
:10290000E9F801218804FFF7CDF8234E3046FFF7A0
:10291000B9FD3015ADF8100003248DF812401820D1
:102920001E4F8DF8130004A93846FDF76BFFF01415
:10293000ADF8100004208DF8130004A93846FDF707
:1029400061FF27208DF814008DF815408DF8164092
:1029500001208DF8170005A8FEF712F80020ADF849
:102960000400ADF80600ADF80800ADF80C000C202E
:10297000ADF80A00009569463046FFF7FBFD0122DD
:1029800040F225513046FFF7DDFD01213046FFF7CB
:102990006EFD07B0F0BD000000480040000C014093
:1029A00038B501211020FFF795F84FF48060ADF89D
:1029B000000004248DF803400320084D8DF8020028
:1029C00069462846FDF71EFF6002ADF800008DF84D
:1029D000034069462846FDF715FF38BD0010014049
:1029E000F0B50546012187B0C804FFF75BF8012167
:1029F0001020FFF76FF8234E3046FFF743FD3015E8
:102A0000ADF8100003248DF8124018201E4F8DF8E9
:102A1000130004A93846FDF7F5FEF014ADF81000D8
:102A200004208DF8130004A93846FDF7EBFE0020C2
:102A3000ADF80400ADF80600ADF80800ADF80C00E4
:102A40000C20ADF80A00009569463046FFF792FD6C
:102A500034208DF814008DF815408DF816400120B3
:102A60008DF8170005A8FDF78BFF012240F22551D4
:102A70003046FFF767FD01213046FFF7F8FC07B04D
:102A8000F0BD0000004C00400010014005A40023F0
:102A9000062219461846FEF7BBFB00212046FFF729
:102AA00053F9F4E7D3C5CEACCBB9BDCCD3FDBBFA5B
:102AB000C6F7C8CB202C20BFAAB7A2BAA2D7D3B5DD
:102AC000C4D6C7C1A600000000000100020001003A
:102AD00003000100020001000400010002000100E7
:102AE00003000100020001000500010002000100D6
:102AF00003000100020001000400010002000100C7
:102B000003000100020001000600010002000100B4
:102B100003000100020001000400010002000100A6
:102B20000300010002000100050001000200010095
:102B30000300010002000100040001000200010086
:102B40000300010002000100070001000200010073
:102B50000300010002000100040001000200010066
:102B60000300010002000100050001000200010055
:102B70000300010002000100040001000200010046
:102B80000300010002000100060001000200010034
:102B90000300010002000100040001000200010026
:102BA0000300010002000100050001000200010015
:102BB0000300010002000100040001000200010006
:102BC00003000100020001000003030601040602E5
:102BD000050003051F1C1F1E1F1E1F1F1E1F1E1F7B
:102BE000002C000800000020A00000003A26000889
:102BF000A02C0008A0000020683000004A26000831
:102C000000000000000000000000000000000000C4
:102C100000000000000000000000000000000000B4
:102C200000000000000000000000000000000000A4
:102C30000000000000000000000000000000000094
:102C40000000000000000000000000000000000084
:102C50000000000000000000000000000000000074
:102C60000000000000000000000000000000000064
:102C700000A24A040000000000000000010203045A
:102C80000607080902040608000000000102030408
:102C9000010203040607080900000000000000000C
:0400000508000131BD
:00000001FF
